:1000000012C019C018C017C016C015C030C013C028
:1000100012C011C010C00FC00EC00DC00CC00BC06C
:100020000AC009C008C011241FBECFE5D4E0DEBF5E
:10003000CDBF2FD034C0E4CF889A8FB780688FBFF0
:100040008EB5887F8EBD89B7837C89BF88B78FEFD7
:1000500088BF8EB588608EBD88E09DE39BBD8ABD5C
:1000600089B7806189BF8EB583608EBD08951F9268
:100070000F920FB60F9211248F939F9382B391E04A
:10008000892782BB9F918F910F900FBE0F901F9079
:100090001895D2DF82B391E0892782BBFFCFF89415
:0200A000FFCF90
:00000001FF
