:1000000012C02CC078C02AC029C028C024C126C074
:1000100025C024C023C022C021C020C01FC01EC0D4
:100020001DC01CC01BC011241FBECFE5D4E0DEBF25
:10003000CDBF10E0A0E6B0E0EAEAF2E002C0059031
:100040000D92AC36B107D9F720E0ACE6B0E001C0C4
:100050001D92AE36B207E1F712D125C1D1CFCF92B2
:10006000DF92EF92FF92CF93DF931F92CDB7DEB76F
:10007000F82E909A88EE93E069838DD092B381E058
:10008000982792BB88EE93E086D08FEF8F0D698121
:10009000843068F490E0FC01EE0FFF1FE80FF91FB9
:1000A000E05AFF4FC080D180E280F12C03C0C12C08
:1000B000D12C7601613019F482E2C82A02C0E8E24C
:1000C000CE2A7DD049E1C701B6017DD049E1C70103
:1000D000B60179D049E1C701B60175D049E16EEBAF
:1000E0007AE28AE890E00F90DF91CF91FF90EF9055
:1000F000DF90CF9068C01F920F920FB60F9211241D
:100100002F933F934F935F936F937F938F939F931F
:10011000AF93BF93EF93FF9361E081E0A0DFFF9186
:10012000EF91BF91AF919F918F917F916F915F916F
:100130004F913F912F910F900FBE0F901F901895E8
:10014000F8948EB588608EBD89B7806189BF789438
:10015000889A08959BBD8ABD10926C008EB581600F
:100160008EBD80916C008823E1F30895882319F0F7
:10017000813049F00895909A87E791E0EBDF9098FD
:1001800085E694E007C0909A85E694E0E3DF9098D6
:1001900087E791E0DFCF9C01A8EEB3E078D0BB27E2
:1001A000A92F982F872F9BBD8ABD10926C008EB50A
:1001B00084608EBD80916C008823E1F30895909A4D
:1001C00081E090E0E8CF8F929F92AF92BF92CF9262
:1001D000DF92EF92FF920F931F93CF93DF936B0108
:1001E0007C01C42FD0E0CE01019721E030E002C0B5
:1001F000220F331F8A95E2F74901AA2497FCA094A5
:10020000BA2C90988AE090E0C6DF00E010E00C176E
:100210001D07A4F481E0B701A601482159216A21F4
:100220007B21452B462B472B09F480E09FDFCC0C2C
:10023000DD1CEE1CFF1C0F5F1F4FE9CFDF91CF913C
:100240001F910F91FF90EF90DF90CF90BF90AF90F4
:100250009F908F9008951F920F920FB60F921124C6
:100260008F9381E080936C008EB5887F8EBD1DBC1E
:100270001CBC8F910F900FBE0F901F90189560DFE0
:1002800060E081E0ECDE80E197E285DFF9CFA29FBC
:10029000B001B39FC001A39F01D0B29F700D811D1B
:0A02A0001124911D0895F894FFCF7A
:0C02AA00800A8A80228A80288A002A8A22
:00000001FF
