:1000000012C019C018C017C016C015C015C013C043
:1000100012C011C010C00FC00EC00DC00CC00BC06C
:100020000AC009C008C011241FBECFE5D4E0DEBF5E
:10003000CDBF14D025C0E4CF1F920F920FB60F9200
:1000400011248F939F9382B391E0892782BB9F9164
:100050008F910F900FBE0F901F901895F8948EB54A
:1000600083608EBD88E09DE39BBD8ABD8EB58860B0
:100070008EBD89B7806189BF7894889A909AFFCFA6
:04008000F894FFCF22
:00000001FF
